:020000040800F2
:100000007806002081010008850E0008E10800083C
:1000100000000000000000000000000000000000E0
:100020000000000000000000000000005110000867
:100030000000000000000000850F00089512000875
:100040009301000893010008930100089301000840
:100050009301000893010008930100089301000830
:100060001904000893010008930100089301000897
:100070009301000893010008930100089301000810
:100080009301000893010008930100089301000800
:1000900093010008930100089301000893010008F0
:1000A00093010008930100089301000893010008E0
:1000B00093010008930100089301000893010008D0
:1000C00000F002F800F04CF812A030C808382418EC
:1000D0002D18AC4201D100F043F80FCCA246AB463C
:1000E0000CA730CF2D1B083F3F197C427F1E544484
:1000F0002D090426F441641EAC4201D300F030F80F
:100100000126334200D0FB1A3343984754465D46DC
:10011000DFE70000AC150000CC150000103A02D358
:1001200078C878C1FAD8520701D330C830C101D598
:1001300004680C6070470000704700000023002432
:1001400000250026103A01D378C1FBD8520700D30E
:1001500030C100D50B6070471FB51FBD10B510BD75
:1001600000F0E3F81146FFF7F7FF01F047FA00F05F
:10017000FBF803B4FFF7F2FF03BC00F001F9000045
:100180000748804707480047FEE7FEE7FEE7FEE72F
:10019000FEE7FEE704480549054A064B70470000A4
:1001A000CD130008C1000008780000207806002068
:1001B0007802002078020020002203098B422CD311
:1001C000030A8B4211D300239C464EE003460B43A7
:1001D0003CD4002243088B4231D303098B421CD309
:1001E000030A8B4201D394463FE0C3098B4201D3FB
:1001F000CB01C01A524183098B4201D38B01C01A33
:10020000524143098B4201D34B01C01A52410309A9
:100210008B4201D30B01C01A5241C3088B4201D358
:10022000CB00C01A524183088B4201D38B00C01A05
:10023000524143088B4201D34B00C01A5241411A2C
:1002400000D201465241104670475DE0CA0F00D00F
:100250004942031000D3404253409C460022030908
:100260008B422DD3030A8B4212D38901FC2212BA8E
:10027000030A8B420CD3890192118B4208D3890166
:1002800092118B4204D389013AD0921100E089097E
:10029000C3098B4201D3CB01C01A524183098B425F
:1002A00001D38B01C01A524143098B4201D34B0148
:1002B000C01A524103098B4201D30B01C01A5241AB
:1002C000C3088B4201D3CB00C01A524183088B4232
:1002D00001D38B00C01A5241D9D243088B4201D3BB
:1002E0004B00C01A5241411A00D2014652411046F9
:1002F00063465B1001D34042002B00D54942704752
:1003000063465B1000D3404201B50549002802DC7A
:10031000491C084000E00846C046C04602BD00BF78
:10032000FFFFFF7F704770477047754600F024F865
:10033000AE46050069465346C008C000854618B061
:1003400020B5FFF727FF60BCB64600260027C0C5D2
:10035000C0C5C0C5C0C5C0C5C0C5C0C5C0C5403D7D
:10036000490849008D46704710B50446C046C0464E
:100370002046FFF7FEFE10BD004870470800002031
:1003800001491820ABBEFEE72600020070470000BE
:1003900080B588B004200121009100F0F5FD02A88D
:1003A000019000F077FA00980199102202920390D0
:1003B000024800F0F1F808B080BDC046000C0140D2
:1003C00080B584B0019101460198039102A908808B
:1003D0000398098800F072FA04B080BD80B584B03B
:1003E000019101460198039102A9088003980988A8
:1003F00000F06DFA04B080BD82B0019001980090C9
:10040000FFE70098002805D0FFE7FFE70098401EAF
:100410000090F6E702B0704780B5402000F018F871
:10042000002809D0FFE705490120087000F012FEFE
:10043000402000F005F8FFE780BDC04668000020BE
:1004400081B0009000981349086001B07047C04621
:1004500083B0029001A90020087000903D48006818
:100460000299084000900B4800680299084208D0A1
:10047000FFE70098002804D0FFE701A901200870D9
:1004800003E001A900200870FFE701A8007803B08D
:100490007047C0461404014082B0019000200090D3
:1004A0002C48009001988079002844D0FFE70198FB
:1004B0000268F44908689043086001980268F249AC
:1004C00008689043086001980179009840180090EE
:1004D0000198026800990868104308600198026852
:1004E000EA4908689043086001980268E84908688A
:1004F000904308600198407910280DD1FFE70198DA
:100500000268E24908681043086001980268E049FF
:100510000868104308600DE0DA48009001984179BE
:1005200000984018009001980268009908681043EC
:100530000860FFE70BE001980179009840180090EF
:10054000019802680099086890430860FFE702B0CC
:100550007047C04600040140B0B583B00A4601466A
:1005600002A8017001A90A70007800900C78A00719
:10057000000F0F258540FC200440C14AA358AB431F
:10058000A350009B09788C07240FA3400140885892
:100590001843885003B0B0BD89B00890079100207F
:1005A000069005900490FFE7079800680699C840F8
:1005B000002800D162E107980068069A0121914065
:1005C000084005900598002800D153E1079840683D
:1005D000022805D0FFE707984068122837D1FFE7C7
:1005E00006A800780007002818D5FFE70898406A99
:1005F000049006984007C00E0F218140049888435C
:1006000004900798416906984007C00E81400498FD
:100610000843049004980899486217E00898006A13
:10062000049006984007C00E0F218140049888432B
:1006300004900798416906984007C00E81400498CD
:1006400008430490049808990862FFE7FFE70798B9
:10065000406801280FD0FFE70798406811280AD0AA
:10066000FFE707984068022805D0FFE70798406831
:10067000122816D1FFE708984068049006980121D7
:10068000814004988843049007984068C006C10FD1
:10069000069881400498084304900498089948609B
:1006A000FFE70898006804900698400003210A4676
:1006B0008240049890430490079842680A40069844
:1006C000400082400498104304900498089A1060F7
:1006D0000898C068049006984000814004988843B8
:1006E0000490079881680698400081400498084368
:1006F000049004980899C860089880680490069847
:1007000001210A4682400498904304900798C268E9
:10071000069882400498104304900498089A9060C8
:100720000898C06A04900698814004988843049011
:10073000079801690698814004980843049004983A
:100740000899C8620798C079C006002800D490E0D4
:100750000698032188434A49405804900698800728
:10076000000F0F21814004988843049008988F4916
:10077000884203D1FFE70020039017E008988C49D6
:10078000884203D1FFE7012002900CE00899894AD2
:100790000220052300939142019001D0009801901E
:1007A00001980290FFE702980390FFE703990698EB
:1007B0008007000F8140049808430490049806992C
:1007C000032291432E4A88502E48006804900599D0
:1007D00004988843049007988079C007002805D0C2
:1007E000FFE70599049808430490FFE7049825491A
:1007F000086025480068049005990498884304908F
:10080000079880798007002805D5FFE705990498A7
:1008100008430490FFE704981B4908601B480068E0
:100820000490059904988843049007988079C0063D
:10083000002805D5FFE70599049808430490FFE7D1
:1008400004981249086012480068049005990498B9
:1008500088430490079880798006002805D5FFE733
:100860000599049808430490FFE704980849086034
:10087000FFE7FFE70698401C069095E609B0704731
:100880000800014000040140040401400804014044
:100890000C04014081B0009000994848086000991C
:1008A0000F20486100990020486000998860009AF4
:1008B0000121D1600099086101B0704782B00190B8
:1008C0006846018000880199886202B0704782B052
:1008D00001906846018000880199886102B07047E4
:1008E000FFE7FEE780B58EB00D900CA801800D9853
:1008F000F349884205D1FFE70520012100F044FBC0
:1009000021E00D982A49884205D1FFE709200121FD
:1009100000F03AFB16E00D982649884205D1FFE722
:100920001120012100F030FB0BE00D982249884294
:1009300005D1FFE78120012100F026FB00E032E035
:10094000FFE7FFE7FFE70CA800881C49884210DC9E
:10095000FFE706A80290FFF79DFF02990CA8008808
:10096000069001200890002007900D98FFF714FED4
:10097000FFE7002000900621FFF7EEFD00994020E0
:10098000049004A801710C21417101210191817130
:10099000FFF782FD019903A808220270417081705F
:1009A00000F092FAFFE70EB080BDC046000801409B
:1009B000000C014000100140001C0140FFFF00003E
:1009C00081B0009000989549086001B07047C0461A
:1009D00080B582B0014601A801700078642804DB6C
:1009E000FFE701A963200870FFE701988A490870B2
:1009F00086490020088087490120087082490870D4
:100A000000F0ACFD02B080BD10B58CB001460BA863
:100A100001700078642804DBFFE70BA963200870ED
:100A2000FFE70BA8019000780A210291FFF7C4FBB1
:100A30000299FFF7C1FB01980A4602990AAB03939A
:100A40001A700078FFF7B8FB0846039909AA0492C8
:100A500010702D48089007AA06920120059010708A
:100A600008980978415C002000F02CF9049A069B54
:100A70000446059819782140197008991278895C04
:100A800000F020F905990346069802781A40027092
:100A9000007808400CB010BD10B586B0024605A81D
:100AA000027004AA0092117003AA0292012101911E
:100AB00011700178002000F005F90099029B0446AE
:100AC00001981A7822401A70097800F0FBF8019911
:100AD0000346029802781A4002700078084006B077
:100AE00010BD000080B582B00748027A01A90A70E3
:100AF000827A684602700978007801430846FFF759
:100B0000CBFF02B080BDC046B416000880B50348D4
:100B100000F086F81A4800F083F880BD0904000050
:100B200080B582B00146684601700078002804DC78
:100B3000FFE7694601200870FFE76846007809284A
:100B400004DBFFE7694608200870FFE76846007885
:100B5000082806D1FFE70A4800F062F801A90870EA
:100B600009E06846007800010549084300F058F89C
:100B700001A90870FFE701A8007802B080BDC04657
:100B80000104000080B520480078002801D1FFE76B
:100B900038E01E4800881E49884205DCFFE71B49F3
:100BA0000888401C0880FFE7184800887D21C9009C
:100BB000884227DBFFE7154900200880154908789F
:100BC00001225040087014480078012807DBFFE735
:100BD00011490878401E087000F0C0FC11E00D4972
:100BE0000120087000F0BAFC0749002008700B488B
:100BF0000068002804D0FFE7084800688047FFE746
:100C0000FFE7FFE780BDC0467200002070000020B3
:100C1000E703000074000020730000206C00002037
:100C200080B58AB008A9088024480078002822D11D
:100C3000FFE704200121019100F0A6F902A800902D
:100C4000FFF728FE00990198C20302921122039235
:100C5000049000200590F248FFF79EFC00F0E2F9B6
:100C600000F0AAF900F0B8F90A2000F0E7FB0198BB
:100C700012490870FFE700F09DFC002804D1FFE74F
:100C800009A90020087014E000F0F1FB0898C009E1
:100C90003E210840403000F019FC08A8007800F020
:100CA00015FC00F0F9FB00F0F7FC09A90120087021
:100CB000FFE709A800780AB080BDC0467700002091
:100CC0000008014080B588B0024606A8027005AA57
:100CD00011700078002804D1FFE7052080020390FE
:100CE0000DE006A8017815200002384A019201297A
:100CF000029001D00198029002980390FFE70399B7
:100D000004A8018000883149884204D1FFE707A97F
:100D10000020087009E004A8008805A909780843A4
:100D2000FFF77EFF07A90870FFE707A8007808B063
:100D300080BDC04680B58AB0099008A80180099896
:100D4000C249884205D1FFE70420012100F01CF9C7
:100D500021E009984949884205D1FFE7082001218F
:100D600000F012F916E009981649884205D1FFE70C
:100D70001020012100F008F90BE00998124988427F
:100D800005D1FFE78020012100F0FEF800E016E029
:100D9000FFE7FFE7FFE708A800880C4988420EDC60
:100DA000FFE702A80190FFF775FD019908A80088E8
:100DB0000290012003900998FFF7EEFBFFE70AB0CD
:100DC00080BDC04600100140001C0140FFFF000034
:100DD00080B584B0019101460198039102A9088071
:100DE00003980988FFF773FD04B080BD80B584B017
:100DF000019101460198039102A90880039809888E
:100E0000FFF75CFD04B080BD80B588B00120049080
:100E100001020191CF480690FFF78CFFCE48029067
:100E200080210391FFF786FF04990698FFF782FF60
:100E3000069802210591FFF77DFFFFF7A9FA0698B2
:100E400010210791FFF7CAFA0D48FFF7D5FA01996B
:100E50000698FFF7BDFF02980399FFF7B9FF0499C1
:100E60000698FFF7B5FF05990698FFF7B1FF0698BA
:100E70000799FFF7A5FA08B080BDC046000C0140F5
:100E8000FFFF1B007047000081B0014668460170FB
:100E900001781F200140012088400249086001B00C
:100EA0007047C04680E100E081B0014668460170AD
:100EB00001781F200140012088400249086001B0EC
:100EC0007047C04600E100E080B582B00190019912
:100ED00000200856497800F013F80198807800281F
:100EE00006D0FFE7019800214056FFF7DDFF05E03F
:100EF000019800214056FFF7C7FFFFE702B080BD11
:100F000070B582B0024601A80270009100214056DF
:100F100000281BD5FFE701A908780F2420400838D6
:100F20000322D3431840164A8058002549578D079D
:100F3000EE0EFF25B540A843009DAD01EDB2B540D2
:100F40002843214008391940885015E0002401A9A0
:100F500008570322D3431840084A805809578C0782
:100F6000E50EFF24AC40A043009CA401E4B2AC40D9
:100F7000204319408850FFE702B070BD00E400E054
:100F80001CED00E07047000082B0019068460170DF
:100F90000078002806D0FFE7019A06490868104348
:100FA000086005E0019A0349086890430860FFE77C
:100FB00002B070471810024080B50120C103664896
:100FC000FFF785FC80BDC04680B50120C1036248A3
:100FD000FFF774FC80BDC04680B5012001035E4868
:100FE000FFF775FC80BDC04680B588B002A80190AF
:100FF000FFF750FC0199012210030290002003909A
:10100000049205905448FFF7C7FA08B080BDC04667
:1010100080B5012001035048FFF750FC80BDC04659
:101020000008014080B588B002A80190FFF732FCAB
:1010300001990120020302921122039204900020E0
:1010400005904548FFF7A8FA08B080BD00080140A8
:101050007047000080B588B00120069001023D482D
:101060000790FFF7B5FE3C488021FFF7B1FE0699D7
:101070000798FFF7ADFE07980221FFF7A9FEFFE7EB
:1010800036480078002864D0FFE7344900200590F6
:101090000870FFF727FD059831490870FFE73048D1
:1010A0000078032851DCFFE72D48007804900328DE
:1010B00021D80498810001A040588746CD1000082F
:1010C000D9100008E3100008ED100008012001020B
:1010D0002048FFF78BFE0EE01F488021FFF786FEB9
:1010E00009E01C480121FFF781FE04E019480221B4
:1010F000FFF77CFEFFE71748019010210291FFF7F0
:101100006DF90F2000040390FFF776F90198012193
:1011100000910902FFF75CFE0F488021FFF758FE9F
:1011200000990198FFF754FE01980221FFF750FE45
:1011300001980299FFF744F90398FFF75DF9FFE77B
:1011400007490878401C0870A9E70020FFF75CFCFD
:10115000FFE795E7000C014000080140680000200F
:101160007500002085B000200490039002A908704B
:10117000AA490868012210430860FFE7A7480068F1
:1011800002210840400802A908700398401C0390FF
:10119000FFE702A801780020C9070029019008D1C3
:1011A000FFE7039805210902401A411E884101907A
:1011B000FFE70198C0070028E0D1FFE797480068E3
:1011C00002210840410802A801700078C0070028E9
:1011D00002D1FFE7FFE7FEE7974908680322904343
:1011E000086008680223184308608D490091086868
:1011F000086008689305984308600868174B184012
:10120000086008680490049812041043049004983D
:101210000860824908680122120610430860FFE74F
:101220007E4800688001002801D4FFE7F8E77C4988
:10123000086807229043086008680222104308608B
:10124000FFE7774800685B4908400121890388422D
:1012500001D0FFE7F5E705B07047C046FFFFC0FECD
:1012600080B500F01BF8554800687D21C900FEF7E5
:10127000A3FF401E04490860044900200860044997
:101280000720086080BDC04614E000E018E000E0E0
:1012900010E000E080B5FFF775FC80BD80B588B038
:1012A0000020079006900590049003905C48006829
:1012B00040490840079007980290002815D0FFE7A2
:1012C0000298082815D0FFE7029801218903884277
:1012D00013D0FFE70298384988424FD0FFE70298C1
:1012E0000121C90388424ED051E034493548086095
:1012F00051E03249334808604DE0494801680F2207
:10130000120411400691016803221305194005914A
:101310000168920511400491006801210906084006
:10132000039006A84088C01C069003A8C078002837
:1013300006D1FFE70699234848432049086005E0A5
:101340000699204848431D490860FFE70598000DAD
:10135000401C05901948019000680599FEF72CFF84
:101360000146019801600499890D491C04910068A7
:101370000499FEF721FF019908600CE00F49012054
:10138000C003086007E00D490D48086003E00B4901
:101390000C480860FFE722480068C0B201090A480B
:1013A000405C0790079A05490868D040086008B07B
:1013B00080BDC04608C000000840000000000020BA
:1013C0003075000000127A00A416000810B5134A08
:1013D000106801231843106011490868114C20401F
:1013E00008601068104C2040106010689B059843FE
:1013F000106008680D4A104008600720C0020C49C0
:101400000860BF2000040B4908600B4908681022DF
:1014100010430860FFF7A6FE10BDC0460010024052
:10142000041002400000FF21FFFFF6FEFFFF00FE58
:101430002C100240081002400020024082B00190AF
:10144000FFE70198411E019100280ED0FFE7002020
:101450000090FFE70098272806DCFFE700BFFFE7C2
:101460000098401C0090F5E7EBE702B0704780B5AC
:1014700082B0FFF7D7FDFFF7AFFDFFF79DFD02201C
:101480000190FFF7DBFFFFF7C3FD0198FFF7D6FFE1
:10149000FFF79AFD02B080BD80B582B0FFF7C2FDB4
:1014A000FFF7B6FDFFF790FD02200190FFF7C6FFA2
:1014B000FFF782FD0198FFF7C1FFFFF78DFD01984F
:1014C000FFF7BCFFFFF790FD02B080BD80B582B092
:1014D00001A90870FFF7A6FD694600200870FFE724
:1014E00068460078072823DCFFE7FFF76DFD012041
:1014F000FFF7A4FF01A800780006002803D5FFE746
:10150000FFF76AFD02E0FFF783FDFFE70198400067
:1015100001A908700120FFF791FFFFF74DFD0220A0
:10152000FFF78CFFFFE70098401C69460870D7E77B
:10153000FFF74AFDFFF758FDFFF74EFD0120FFF7CB
:101540007DFFFFF739FD0220FFF778FFFFF73CFD35
:10155000FFF768FDFFF740FD02B080BD80B588B0A1
:101560001248019000780A210291FEF725FE0299A7
:10157000FEF722FE01980A46029907AB03931A7000
:101580000078FEF719FE039806AA11700078084942
:101590000B5C05A8037012788A5C04A90A700078B5
:1015A0000978FFF779FA08B080BDC04673000020C3
:1015B000B416000885B0EFF31080029002980090F6
:1015C00072B637480078002809D0FFE700980490E9
:1015D000049880F3108801A9002008700AE03049BF
:1015E0000120087000990391039981F3108801A9E3
:1015F0000870FFE701A8007805B0704780B582B099
:1016000000200190FFF7E2FEFFF780FAFFF7FCFBF6
:10161000FEF7BEFE12484021FFF764F9FFF720FEF7
:101620000820FFF77DFAFFF75DFA0E480090FEF7FD
:10163000E3FE0A20FFF7E8F90098FEF7DDFE0A480E
:10164000FFF7BEF90320FFF7C3F9FFE7012001020E
:101650000F48FFF7CBFB0348FEF7CEFEF6E7C04688
:1016600000080140000F1B006D16000880B582B015
:101670000748009010210191FEF7B0FE0548FEF7E3
:10168000BBFE00980199FEF79BFE02B080BDC046EC
:10169000000C0140FF011B00014900200870704749
:1016A000760000200000000000000000010203049A
:1016B00006070809D7C0B5F1E27377C1F7F3080050
:1016C000E016000800000020040000001C010008D3
:1016D000E416000808000020700600003C01000825
:0416E000006CDC02BC
:04000005080001816D
:00000001FF
